AZ 00T5F1hp92TF724110  INF202511012025113020251202                                                                                                                                                                                                                                                                                                                                                                                                                                                                  
BA TF72411087724110    75249496202511302025123007                                        0000000147753-                              EUR                                                                                                                                                                                                                                                                                                                                                                            
BJ TF724110K51662027524949672411087724110    K516620225020251130                                                  0000000652000-0000003911999-0000000652000-0000003911999-                              EUREUR                                                                                                                                                                                                                                                                                                      
BR K5166202TF724110        K5166202202511270000                                             00000000 000000                                                 00TFTOTAL          0001000000000000000+00073409800100+000000000+0201EURC 20000000000122350-0000000734098-0000000122350-0000000734098-250EUR                                                                                VH024HUE Super 98 Sans PL                                                                                                    
BR K5166202TF724110        K5166202202511270000                                             00000000 000000                                                 00TFTOTAL          0001000000000000000+00052771900100+000000000+0112EURC 20000000000087953-0000000527719-0000000087953-0000000527719-250EUR                                                                                VH024H36 Gazole Excellium                                                                                                    
BR K5166202TF724110        K5166202202511270000                                             00000000 000000                                                 00TFTOTAL          0001000000000000000+00125442700100+000000000+0102EURC 20000000000209071-0000001254427-0000000209071-0000001254427-250EUR                                                                                VH024HL4 Gazole Premier                                                                                                      
BR K5166202TF724110        K5166202202511270000                                             00000000 000000                                                 00TFTOTAL          0001000000000000000+00022607900100+000000000+0222EURC 20000000000037680-0000000226079-0000000037680-0000000226079-250EUR                                                                                VH024H3D Sans Plomb 95 E5                                                                                                    
BR K5166202TF724110        K5166202202511270000                                             00000000 000000                                                 00TFTOTAL          0001000000000000000+00098991500100+000000000+0223EURC 20000000000164986-0000000989915-0000000164986-0000000989915-250EUR                                                                                VH024H1Y Sans Plomb 95 E10                                                                                                   
BR K5166202TF724110        K5166202202511270000                                             00000000 000000                                                 00TFTOTAL          0001000000000000000+00000090800100+000000000+0109EURC 20000000000000151-0000000000908-0000000000151-0000000000908-250EUR                                                                                VH024HSJ AdBlue Pompe                                                                                                        
BR K5166202TF724110        K5166202202511270000                                             00000000 000000                                                 00TFTOTAL          0001000000000000000+00017885300100+000000000+0116EURC 20000000000029809-0000000178853-0000000029809-0000000178853-250EUR                                                                                VH024H6Z Diesel B10                                                                                                          
BJ TF724110K51662037524949672411087724110    K516620325020251130                                                  0000000011468-0000000068810-0000000011468-0000000068810-                              EUREUR                                                                                                                                                                                                                                                                                                      
BR K5166203TF724110        K5166203202511270000                                             00000000 000000                                                 00TFTOTAL          0001000000000000000+00000150000100+000000000+0571EURC 20000000000000250-0000000001500-0000000000250-0000000001500-250EUR                                                                                VH024HVS Lavage Carte TOTAL A                                                                                                
BR K5166203TF724110        K5166203202511270000                                             00000000 000000                                                 00TFTOTAL          0001000000000000000+00000075000100+000000000+0499EURC 20000000000000125-0000000000750-0000000000125-0000000000750-250EUR                                                                                VH024H5T Accessoires                                                                                                         
BR K5166203TF724110        K5166203202511270000                                             00000000 000000                                                 00TFTOTAL          0001000000000000000+00000134000100+000000000+0544EURC 20000000000000223-0000000001340-0000000000223-0000000001340-250EUR                                                                                VH024H8J Lavage Progr. 4                                                                                                     
BR K5166203TF724110        K5166203202511270000                                             00000000 000000                                                 00TFTOTAL          0001000000000000000+00000200000100+000000000+0540EURC 20000000000000333-0000000002000-0000000000333-0000000002000-250EUR                                                                                VH024ID0 Lavage Hte Pression                                                                                                 
BR K5166203TF724110        K5166203202511270000                                             00000000 000000                                                 00TFTOTAL          0001000000000000000+00000988000100+000000000+0543EURC 20000000000001647-0000000009880-0000000001647-0000000009880-250EUR                                                                                VH024HSY Lavage Progr. 3                                                                                                     
BR K5166203TF724110        K5166203202511270000                                             00000000 000000                                                 00TFTOTAL          0001000000000000000+00000073000100+000000000+0542EURC 20000000000000122-0000000000730-0000000000122-0000000000730-250EUR                                                                                VH024H73 Lavage Progr. 2                                                                                                     
BR K5166203TF724110        K5166203202511270000                                             00000000 000000                                                 00TFTOTAL          0001000000000000000+00000800000100+000000000+0548EURC 20000000000001333-0000000008000-0000000001333-0000000008000-250EUR                                                                                VH024HT6 CODE LAV DGIT                                                                                                       
BR K5166203TF724110        K5166203202511270000                                             00000000 000000                                                 00TFTOTAL          0001000000000000000+00000650000100+000000000+0565EURC 20000000000001083-0000000006500-0000000001083-0000000006500-250EUR                                                                                VH024HQ2 Lavage Carte TW D                                                                                                   
BR K5166203TF724110        K5166203202511270000                                             00000000 000000                                                 00TFTOTAL          0001000000000000000+00000350000100+000000000+0563EURC 20000000000000583-0000000003500-0000000000583-0000000003500-250EUR                                                                                VH024HOI Lavage Carte TW C                                                                                                   
BR K5166203TF724110        K5166203202511270000                                             00000000 000000                                                 00TFTOTAL          0001000000000000000+00001024000100+000000000+0545EURC 20000000000001707-0000000010240-0000000001707-0000000010240-250EUR                                                                                VH024HPO Lavage Progr. 5                                                                                                     
BR K5166203TF724110        K5166203202511270000                                             00000000 000000                                                 00TFTOTAL          0001000000000000000+00000730000100+000000000+0501EURC 20000000000001217-0000000007300-0000000001217-0000000007300-250EUR                                                                                VH024HRA Lavage                                                                                                              
BR K5166203TF724110        K5166203202511270000                                             00000000 000000                                                 00TFTOTAL          0001000000000000000+00000650000100+000000000+0565EURC 20000000000001083-0000000006500-0000000001083-0000000006500-250EUR                                                                                VH024HZI Lavage Carte TW D                                                                                                   
BR K5166203TF724110        K5166203202511270000                                             00000000 000000                                                 00TFTOTAL          0001000000000000000+00001057000100+000000000+0541EURC 20000000000001762-0000000010570-0000000001762-0000000010570-250EUR                                                                                VH024HL1 Lavage Progr. 1                                                                                                     
BJ TF724110K51662047524949672411087724110    K516620425020251130                                                  0000000002543-0000000015258-0000000002543-0000000015258-                              EUREUR                                                                                                                                                                                                                                                                                                      
BR K5166204TF724110        K5166204202511270000                                             00000000 000000                                                 00TFTOTAL          0001000000000000000+00000283000100+000000000+0301EURC 20000000000000472-0000000002830-0000000000472-0000000002830-250EUR                                                                                VH024HNP Lubrifiant                                                                                                          
BR K5166204TF724110        K5166204202511270000                                             00000000 000000                                                 00TFTOTAL          0001000000000000000+00001242800100+000000000+0303EURC 20000000000002071-0000000012428-0000000002071-0000000012428-250EUR                                                                                VH024HX5 Adblue Bidon                                                                                                        
BJ TF724110K51661977524949672411087724110    K516619725020251130                                                  0000000633693+0000003802089+0000000633693+0000003802089+                              EUREUR                                                                                                                                                                                                                                                                                                      
BR K5166197TF724110GOZ07642K516619720251121081364 OLORON STE MARIE           EW-468-YK    TFVSM 3562A11062300000000000000000              711308          0322TFVSM          720030060000000000000+00000018290097+000000052-0102EURD 20000000000000890+0000000005339+0000000000890+0000000005339+250EUR                                                                                AETJSJCW5Gazole Premier                                                             VEHICULES GAZOLE                         
BR K5166197TF724110GOZ06133K516619720251118134064 OLORON STE MARIE           CS-583-QP    TFVSM 2116A25846000000000000000000              701001          0322TFVSM          720045780000000000000+00000018140097+000000052-0102EURD 20000000000001344+0000000008063+0000000001344+0000000008063+250EUR                                                                                AETIGWOX7Gazole Premier                                                             VEHICULES GAZOLE                         
BR K5166197TF724110SUP09490K516619720251106190764 PAU                        GT-761-KC    TFWFD 4195B05100000000000000000000              711308          03ACTFWFD          720015550000000000000+00000017950097+000000052-0223EURD 20000000000000452+0000000002710+0000000000452+0000000002710+250EUR                                                                                AETCUKGX7Sans Plomb 95 E10                                                          VEHICULES TOUS SUPER ET GPL              
BR K5166197TF724110SUP09680K516619720251112190564 JURANCON                   GX-864-RM    TFDOE 1210B02799200000000000000000              710099          03ACTFDOE          720018230000000000000+00000018000097+000000052-0223EURD 20000000000000531+0000000003185+0000000000531+0000000003185+250EUR                                                                                AETFGAGY8Sans Plomb 95 E10                                                          VEHICULES TOUS SUPER ET GPL              
BR K5166197TF724110SUP09640K516619720251118170464 BAYONNE                    GX-898-RM    TFBBI 9361B00963200000000000000000              710099          0321TFBBI          720018900000000000000+00000019390097+000000052-0201EURD 20000000000000594+0000000003565+0000000000594+0000000003565+250EUR                                                                                AETIGWMJ2Super 98 Sans PL                                                           VEHICULES TOUS SUPER ET GPL              
BR K5166197TF724110GOZ06384K516619720251105140764 PARDIES                    DC-129-DH    TFLZB 5217A25776600000000000000000              701001          0352TFLZB          720069080000000000000+00000017790097+000000052-0102EURD 20000000000001987+0000000011924+0000000001987+0000000011924+250EUR                                                                                AETCNPYL6Gazole Premier                                                             VEHICULES GAZOLE                         
BR K5166197TF724110SUP09870K516619720251128090964 JURANCON                   HA-706-HP    TFDOE 3216B00000000000000000000000              701001          03ACTFDOE          720040060000000000000+00000019090097+000000052-0201EURD 20000000000001240+0000000007438+0000000001240+0000000007438+250EUR                                                                                AETNQOVB1Super 98 Sans PL                                                           VEHICULES TOUS SUPER ET GPL              
BR K5166197TF724110GOZ06972K516619720251104133564 PAU                        DS-168-BY    TFWFD 0598B21405500000000000000000              701001          03ACTFWFD          720048500000000000000+00000017690097+000000052-0102EURD 20000000000001387+0000000008324+0000000001387+0000000008324+250EUR                                                                                AETBZAVJ8Gazole Premier                                                             VEHICULES GAZOLE                         
BR K5166197TF724110GOZ08321K516619720251128110664 LARRESSORE                 GB-501-CJ    TFBDG 1854B06568100000000000000000              701001          03OTTFBDG          720032260000000000000+00000017790097+000000052-0102EURD 20000000000000928+0000000005568+0000000000928+0000000005568+250EUR                                                                                AETNNTEN6Gazole Premier                                                             VEHICULES GAZOLE                         
BR K5166197TF724110GOZ07323K516619720251105152864 JURANCON                   ED-783-WP    TFWLI 4869A16678000000000000000000              701001          0352TFWLI          720019320000000000000+00000018290097+000000052-0112EURD 20000000000000572+0000000003431+0000000000572+0000000003431+250EUR                                                                                AETCLUFG3Gazole Excellium                                                           VEHICULES GAZOLE                         
BR K5166197TF724110SUP09600K516619720251127101064 OLORON STE MARIE           GX-878-VP    TFVSM 6389 00382700000000000000000              710099          0322TFVSM          720008000000000000000+00000018000097+000000052-0223EURD 20000000000000233+0000000001398+0000000000233+0000000001398+250EUR                                                                                AETMZBLK6Sans Plomb 95 E10                                                          VEHICULES TOUS SUPER ET GPL              
BR K5166197TF724110GOZ03595K516619720251104131564 ORTHEZ                     BA-448-HL    TFMCS 9246B20336300000000000000000              701001          0351TFMCS          720036000000000000000+00000017690097+000000052-0102EURD 20000000000001030+0000000006179+0000000001030+0000000006179+250EUR                                                                                AETBYXVO0Gazole Premier                                                             VEHICULES GAZOLE                         
BR K5166197TF724110GOZ07462K516619720251120104464 BILLERE                    EN-263-DA    TFMEE 7616A11737400000000000000000              701001          0352TFMEE          720024340000000000000+00000018290097+000000052-0116EURD 20000000000000721+0000000004324+0000000000721+0000000004324+250EUR                                                                                AETJHLJL9Diesel B10                                                                 VEHICULES GAZOLE                         
BR K5166197TF724110SUP09390K516619720251112121964 ST JEAN LE VIEUX           GQ-096-RY    TFMNB 4363B07656000000000000000000              701001          0322TFMNB          720023170000000000000+00000018000097+000000052-0223EURD 20000000000000675+0000000004048+0000000000675+0000000004048+250EUR                                                                                AETFGRIP0Sans Plomb 95 E10                                                          VEHICULES TOUS SUPER ET GPL              
BR K5166197TF724110SUP08061K516619720251126174764 BAYONNE                    FQ-807-TJ    TFBBI 9547B13944500000000000000000              701001          0321TFBBI          720029900000000000000+00000018100097+000000052-0223EURD 20000000000000875+0000000005252+0000000000875+0000000005252+250EUR                                                                                AETMFZYJ8Sans Plomb 95 E10                                                          VEHICULES TOUS SUPER ET GPL              
BR K5166197TF724110GOZ07593K516619720251126180364 BILLERE                    EW-327-DE    TFMEE 9657 17428000000000000000000              711308          0352TFMEE          720028570000000000000+00000017990097+000000052-0116EURD 20000000000000831+0000000004988+0000000000831+0000000004988+250EUR                                                                                AETLWRRS0Diesel B10                                                                 VEHICULES GAZOLE                         
BR K5166197TF724110GOZ03714K516619720251107151864 SUSMIOU                    BB-646-GL    TFJAV 0836A21586000000000000000000              701001          0351TFJAV          720041950000000000000+00000017940097+000000052-0102EURD 20000000000001217+0000000007304+0000000001217+0000000007304+250EUR                                                                                AETDUXPH7Gazole Premier                                                             VEHICULES GAZOLE                         
BR K5166197TF724110GOZ07323K516619720251127110564 BILLERE                    ED-783-WP    TFMEE 7269B16785000000000000000000              701001          0352TFMEE          720018040000000000000+00000017790097+000000052-0116EURD 20000000000000519+0000000003114+0000000000519+0000000003114+250EUR                                                                                AETMWPJF3Diesel B10                                                                 VEHICULES GAZOLE                         
BR K5166197TF724110SUP09190K516619720251127130464 PAU                        GP-306-NZ    TFMCB 1817B04925900000000000000000              701001          0351TFMCB          720030290000000000000+00000018000097+000000052-0223EURD 20000000000000882+0000000005292+0000000000882+0000000005292+250EUR                                                                                AETMUYIC4Sans Plomb 95 E10                                                          VEHICULES TOUS SUPER ET GPL              
BR K5166197TF724110SUP09620K516619720251121124464 OLORON STE MARIE           GX-918-RM    TFVSM 3775A50000000000000000000000              710099          0322TFVSM          720025160000000000000+00000018400097+000000052-0223EURD 20000000000000749+0000000004495+0000000000749+0000000004495+250EUR                                                                                AETKAPQV4Sans Plomb 95 E10                                                          VEHICULES TOUS SUPER ET GPL              
BR K5166197TF724110GOZ05694K516619720251105175864 SALIES DE BEARN            CJ-719-CY    TFMHA 0328A13768500000000000000000              701001          0351TFMHA          720034960000000000000+00000017790097+000000052-0102EURD 20000000000001006+0000000006035+0000000001006+0000000006035+250EUR                                                                                AETCLKLV9Gazole Premier                                                             VEHICULES GAZOLE                         
BR K5166197TF724110GOZ07282K516619720251127074764 PAU                        ED-680-WQ    TFWFD 8968B17686200000000000000000              701001          03ACTFWFD          720016170000000000000+00000018290097+000000052-0112EURD 20000000000000479+0000000002873+0000000000479+0000000002873+250EUR                                                                                AETNACUN1Gazole Excellium                                                           VEHICULES GAZOLE                         
BR K5166197TF724110SUP08860K516619720251103173464 ARUDY                      GN-164-EN    TFEUO 9341A05611200000000000000000              701001          0300TFEUO          720040420000000000000+00000019040097+000000052-0201EURD 20000000000001247+0000000007483+0000000001247+0000000007483+250EUR                                                                                AETBIWJJ3Super 98 Sans PL                                                           VEHICULES TOUS SUPER ET GPL              
BR K5166197TF724110GOZ06093K516619720251121082764 OLORON STE MARIE           CR-178-ZL    TFVSM 3572A15005600000000000000000              701001          0322TFVSM          720029230000000000000+00000018290097+000000052-0102EURD 20000000000000865+0000000005191+0000000000865+0000000005191+250EUR                                                                                AETKAPQQ3Gazole Premier                                                             VEHICULES GAZOLE                         
BR K5166197TF724110SUP08840K516619720251107135764 SALIES DE BEARN            GN-064-EN    TFMHA 0575A03827300000000000000000              701001          0351TFMHA          720030950000000000000+00000018000097+000000052-0223EURD 20000000000000901+0000000005407+0000000000901+0000000005407+250EUR                                                                                AETDRWBK5Sans Plomb 95 E10                                                          VEHICULES TOUS SUPER ET GPL              
BR K5166197TF724110SUP09840K516619720251114114464 GOTEIN LIBARRENX           CM-630-VD    TFHTL 2469A20531400000000000000000              710099          0351TFHTL          720050890000000000000+00000018590097+000000052-0203EURD 20000000000001532+0000000009193+0000000001532+0000000009193+250EUR                                                                                AETGQJLP8Super 95 Sans PL                                                           VEHICULES TOUS SUPER ET GPL              
BR K5166197TF724110SUP08920K516619720251120150264 ST PIERRE D'IRUBE          GN-193-AV    TFMKT 3005A04785700000000000000000              701001          0351TFMKT          720021910000000000000+00000019490097+000000052-0201EURD 20000000000000693+0000000004156+0000000000693+0000000004156+250EUR                                                                                AETJKTJN5Super 98 Sans PL                                                           VEHICULES TOUS SUPER ET GPL              
BR K5166197TF724110SUP09630K516619720251127114764 PAU                        GX-912-RM    TFWFD 0341B02790000000000000000000              710099          03ACTFWFD          720029960000000000000+00000018000097+000000052-0223EURD 20000000000000872+0000000005233+0000000000872+0000000005233+250EUR                                                                                AETNACUU3Sans Plomb 95 E10                                                          VEHICULES TOUS SUPER ET GPL              
BR K5166197TF724110SUP07941K516619720251119073064 BIDART                     FJ-250-EJ    TFMJF 3528B11203500000000000000000              701001          0331TFMJF          720042470000000000000+00000019490097+000000052-0201EURD 20000000000001342+0000000008053+0000000001342+0000000008053+250EUR                                                                                AETIXSOR2Super 98 Sans PL                                                           VEHICULES TOUS SUPER ET GPL              
BR K5166197TF724110SUP08910K516619720251106130664 SALIES DE BEARN            GN-143-EN    TFMHA 0427A03239200000000000000000              701001          0351TFMHA          720034100000000000000+00000017950097+000000052-0223EURD 20000000000000990+0000000005940+0000000000990+0000000005940+250EUR                                                                                AETDBAXF6Sans Plomb 95 E10                                                          VEHICULES TOUS SUPER ET GPL              
BR K5166197TF724110SUP09720K516619720251126130664 PAU                        GX-836-RM    TFWFD 8781B00537500000000000000000              710099          03ACTFWFD          720028950000000000000+00000019190097+000000052-0201EURD 20000000000000901+0000000005404+0000000000901+0000000005404+250EUR                                                                                AETMEDPR2Super 98 Sans PL                                                           VEHICULES TOUS SUPER ET GPL              
BR K5166197TF724110SUP06583K516619720251121123264 OLORON STE MARIE           DH-850-SK    TFVSM 3767A14659400000000000000000              701001          0422TFVSM          720016420000000000000+00000019490097+000000052-0201EURD 20000000000000519+0000000003114+0000000000519+0000000003114+250EUR                                                                                AETKAPQR3Super 98 Sans PL                                                           VEHICULES TOUS SUPER ET GPL              
BR K5166197TF724110GOZ07332K516619720251104191764 BILLERE                    ED-790-WP    TFMEE 2812A16359200000000000000000              701001          0352TFMEE          720020570000000000000+00000017690097+000000052-0116EURD 20000000000000588+0000000003529+0000000000588+0000000003529+250EUR                                                                                AETBVQDF4Diesel B10                                                                 VEHICULES GAZOLE                         
BR K5166197TF724110SUP08391K516619720251112162064 BAYONNE                    GB-781-JP    TFDOP 5500B10405600000000000000000              701001          03OTTFDOP          720031510000000000000+00000018000097+000000052-0223EURD 20000000000000917+0000000005504+0000000000917+0000000005504+250EUR                                                                                AETFJAAO9Sans Plomb 95 E10                                                          VEHICULES TOUS SUPER ET GPL              
BR K5166197TF724110SUP09230K516619720251124124064 ORTHEZ                     GP-342-NZ    TFMCS 1051B05797300000000000000000              701001          0351TFMCS          720027930000000000000+00000019290097+000000052-0201EURD 20000000000000873+0000000005240+0000000000873+0000000005240+250EUR                                                                                AETLBEIM8Super 98 Sans PL                                                           VEHICULES TOUS SUPER ET GPL              
BR K5166197TF724110SUP08271K516619720251127113964 JURANCON                   FY-887-PX    TFDOE 1552 08480000000000000000000              701001          03ACTFDOE          720034190000000000000+00000018000097+000000052-0223EURD 20000000000000996+0000000005974+0000000000996+0000000005974+250EUR                                                                                AETMZCXT3Sans Plomb 95 E10                                                          VEHICULES TOUS SUPER ET GPL              
BR K5166197TF724110GOZ08311K516619720251112171764 ST PALAIS                  GB-607-CJ    TFBJC 6564A05784500000000000000000              701001          0352TFBJC          720035390000000000000+00000017940097+000000052-0102EURD 20000000000001027+0000000006162+0000000001027+0000000006162+250EUR                                                                                AETFLVXZ7Gazole Premier                                                             VEHICULES GAZOLE                         
BR K5166197TF724110SUP09700K516619720251105115464 BAYONNE                    GX-856-RM    TFDOP 2993B00990100000000000000000              710099          03OTTFDOP          720023960000000000000+00000017950097+000000052-0223EURD 20000000000000696+0000000004174+0000000000696+0000000004174+250EUR                                                                                AETCQGBK4Sans Plomb 95 E10                                                          VEHICULES TOUS SUPER ET GPL              
BR K5166197TF724110GOZ06664K516619720251127110464 BAYONNE                    DL-536-XS    TFBBI 9663B15264300000000000000000              701001          0321TFBBI          720025580000000000000+00000017790097+000000052-0116EURD 20000000000000736+0000000004415+0000000000736+0000000004415+250EUR                                                                                AETMZBIQ1Diesel B10                                                                 VEHICULES GAZOLE                         
BR K5166197TF724110SUP09550K516619720251119162864 PAU                        GX-904-VP    TFMCB 0369 00786400000000000000000              710099          0351TFMCB          720029910000000000000+00000019490097+000000052-0201EURD 20000000000000945+0000000005671+0000000000945+0000000005671+250EUR                                                                                AETIRZZX3Super 98 Sans PL                                                           VEHICULES TOUS SUPER ET GPL              
BR K5166197TF724110SUP09270K516619720251126120564 BILLERE                    GP-453-NZ    TFMEE 7139B01984900000000000000000              701001          0352TFMEE          720011220000000000000+00000019190097+000000052-0201EURD 20000000000000349+0000000002094+0000000000349+0000000002094+250EUR                                                                                AETMDOCH4Super 98 Sans PL                                                           VEHICULES TOUS SUPER ET GPL              
BR K5166197TF724110SUP09490K516619720251103185864 BILLERE                    GT-761-KC    TFMEE 4048B05000000000000000000000              711308          0352TFMEE          720021290000000000000+00000017950097+000000052-0223EURD 20000000000000618+0000000003708+0000000000618+0000000003708+250EUR                                                                                AETBBHHB7Sans Plomb 95 E10                                                          VEHICULES TOUS SUPER ET GPL              
BR K5166197TF724110SUP08361K516619720251120080064 AURIAC                     GB-223-MC    TFIDV 4214B04600000000000000000000              701001          0352TFIDV          720016150000000000000+00000018990097+000000052-0203EURD 20000000000000497+0000000002982+0000000000497+0000000002982+250EUR                                                                                AETJHNCD2Super 95 Sans PL                                                           VEHICULES TOUS SUPER ET GPL              
BR K5166197TF724110SUP09620K516619720251126083864 MONTARDON                  GX-918-RM    TFMUF 4207B01421000000000000000000              710099          0322TFMUF          720024490000000000000+00000019190097+000000052-0201EURD 20000000000000762+0000000004571+0000000000762+0000000004571+250EUR                                                                                AETMFIII4Super 98 Sans PL                                                           VEHICULES TOUS SUPER ET GPL              
BR K5166197TF724110GOZ06173K516619720251113141964 BIZANOS                    CV-317-NN    TFBMB 4523A25050000000000000000000              701001          03ACTFBMB          720058980000000000000+00000017940097+000000052-0102EURD 20000000000001712+0000000010270+0000000001712+0000000010270+250EUR                                                                                AETGDQFQ3Gazole Premier                                                             VEHICULES GAZOLE                         
BR K5166197TF724110SUP09660K516619720251125093964 BILLERE                    GX-877-RM    TFMEE 9058 00645100000000000000000              710099          0452TFMEE          720033740000000000000+00000019290097+000000052-0201EURD 20000000000001055+0000000006331+0000000001055+0000000006331+250EUR                                                                                AETLTHFO0Super 98 Sans PL                                                           VEHICULES TOUS SUPER ET GPL              
BR K5166197TF724110GOZ06113K516619720251125123864 BILLERE                    CR-137-ZL    TFMEE 7016B15523100000000000000000              701001          0352TFMEE          720042960000000000000+00000018090097+000000052-0116EURD 20000000000001257+0000000007544+0000000001257+0000000007544+250EUR                                                                                AETLTHFG9Diesel B10                                                                 VEHICULES GAZOLE                         
BR K5166197TF724110SUP08101K516619720251106171912 BARAQUEVILLE               FR-273-QD    TFEVF 2725A07880800000000000000000              701001          0352TFEVF          730032830000000000000+00000018540097+000000052-0203EURD 20000000000000986+0000000005916+0000000000986+0000000005916+250EUR                                                                                AETDDUNE2Super 95 Sans PL                                                           VEHICULES TOUS SUPER ET GPL              
BR K5166197TF724110SUP08860K516619720251113144764 JURANCON                   GN-164-EN    TFWLI 6032A05682600000000000000000              701001          0352TFWLI          720044700000000000000+00000019090097+000000052-0201EURD 20000000000001383+0000000008298+0000000001383+0000000008298+250EUR                                                                                AETGCTBC3Super 98 Sans PL                                                           VEHICULES TOUS SUPER ET GPL              
BR K5166197TF724110GOZ07332K516619720251112122464 BIZANOS                    ED-790-WP    TFBMB 7234B16398400000000000000000              701001          03ACTFBMB          720020320000000000000+00000017940097+000000052-0102EURD 20000000000000590+0000000003539+0000000000590+0000000003539+250EUR                                                                                AETFKYCG4Gazole Premier                                                             VEHICULES GAZOLE                         
BR K5166197TF724110GOZ09400K516619720251118154464 PAU                        DX-192-ST    TFWFD 7079B28381300000000000000000              701001          02ACTFWFD          720054780000000000000+00000018140097+000000052-0102EURD 20000000000001608+0000000009648+0000000001608+0000000009648+250EUR                                                                                AETICGKU7Gazole Premier                                                             VEHICULES GAZOLE                         
BR K5166197TF724110GOZ07482K516619720251121090464 PAU                        EN-902-CZ    TFWFD 9552B18814100000000000000000              701001          03ACTFWFD          720021560000000000000+00000018290097+000000052-0102EURD 20000000000000638+0000000003829+0000000000638+0000000003829+250EUR                                                                                AETKBTIK7Gazole Premier                                                             VEHICULES GAZOLE                         
BR K5166197TF724110SUP07871K516619720251121104564 JURANCON                   FE-909-QT    TFWLI 7109 08175400000000000000000              701001          0352TFWLI          720040830000000000000+00000018400097+000000052-0223EURD 20000000000001216+0000000007296+0000000001216+0000000007296+250EUR                                                                                AETKFBFC1Sans Plomb 95 E10                                                          VEHICULES TOUS SUPER ET GPL              
BR K5166197TF724110GOZ07082K516619720251103121764 AURIAC                     DT-832-ML    TFIDV 2096B14201800000000000000000              701001          0352TFIDV          720021650000000000000+00000017640097+000000052-0102EURD 20000000000000618+0000000003706+0000000000618+0000000003706+250EUR                                                                                AETBIVEZ5Gazole Premier                                                             VEHICULES GAZOLE                         
BR K5166197TF724110CAB08212K516619720251101110964 JURANCON                   FT-489-AD    TFDOE 8225 18720000000000000000000              711308          03ACTFDOE          720048870000000000000+00000017640097+000000052-0102EURD 20000000000001394+0000000008363+0000000001394+0000000008363+250EUR                                                                                AETASHTV6Gazole Premier                                                             CABINET                                  
BR K5166197TF724110SUP08271K516619720251120172764 BIZANOS                    FY-887-PX    TFBMB 7777B08426900000000000000000              701001          03ACTFBMB          720036840000000000000+00000018400097+000000052-0223EURD 20000000000001097+0000000006583+0000000001097+0000000006583+250EUR                                                                                AETJIZHT3Sans Plomb 95 E10                                                          VEHICULES TOUS SUPER ET GPL              
BR K5166197TF724110SUP09700K516619720251121163847 BOURRAN                    GX-856-RM    TFQPU 6462A01073600000000000000000              710099          0351TFQPU          720014210000000000000+00000018400097+000000052-0223EURD 20000000000000423+0000000002539+0000000000423+0000000002539+250EUR                                                                                AETKELMC4Sans Plomb 95 E10                                                          VEHICULES TOUS SUPER ET GPL              
BR K5166197TF724110GOZ02465K516619720251119085164 ST JEAN DE LUZ             1152YP64     TFDOI 5684A19193100000000000000000              701001          0321TFDOI          720039990000000000000+00000018290097+000000052-0102EURD 20000000000001184+0000000007103+0000000001184+0000000007103+250EUR                                                                                AETIWHIF7Gazole Premier                                                             VEHICULES GAZOLE                         
BR K5166197TF724110SUP09490K516619720251110165517 TONNAY CHARENTE            GT-761-KC    TFTGE 3294A05170000000000000000000              711308          0333TFTGE          540028180000000000000+00000018000097+000000052-0223EURD 20000000000000820+0000000004922+0000000000820+0000000004922+250EUR                                                                                AETEOEBV7Sans Plomb 95 E10                                                          VEHICULES TOUS SUPER ET GPL              
BR K5166197TF724110GOZ02945K516619720251117183364 PAU                        5719ZB64     TFMCB 9734 16378800000000000000000              701001          0351TFMCB          720049270000000000000+00000018040097+000000052-0116EURD 20000000000001438+0000000008628+0000000001438+0000000008628+250EUR                                                                                AETHPXFN8Diesel B10                                                                 VEHICULES GAZOLE                         
BR K5166197TF724110SUP08091K516619720251124140764 ORTHEZ                     FR-105-QV    TFMCS 1599B14154000000000000000000              701001          0351TFMCS          720030360000000000000+00000019290097+000000052-0201EURD 20000000000000949+0000000005696+0000000000949+0000000005696+250EUR                                                                                AETLBEIL5Super 98 Sans PL                                                           VEHICULES TOUS SUPER ET GPL              
BR K5166197TF724110SUP09160K516619720251111115940 CAPBRETON                  GP-194-NZ    TFJEY 4488A06891000000000000000000              701001          0322TFJEY          720042040000000000000+00000019090097+000000052-0201EURD 20000000000001301+0000000007805+0000000001301+0000000007805+250EUR                                                                                AETEXFBN7Super 98 Sans PL                                                           VEHICULES TOUS SUPER ET GPL              
BR K5166197TF724110SUP08461K516619720251114141664 ANGLET                     GC-497-PM    TFSUX 5895B07304100000000000000000              701001          03ACTFSUX          720040620000000000000+00000018000097+000000052-0223EURD 20000000000001183+0000000007096+0000000001183+0000000007096+250EUR                                                                                AETGPGUX0Sans Plomb 95 E10                                                          VEHICULES TOUS SUPER ET GPL              
BR K5166197TF724110SUP09760K516619720251119082064 PAU                        GX-018-RN    TFMCB 0140 02227000000000000000000              710099          0351TFMCB          720034370000000000000+00000018400097+000000052-0223EURD 20000000000001024+0000000006142+0000000001024+0000000006142+250EUR                                                                                AETIRZZY8Sans Plomb 95 E10                                                          VEHICULES TOUS SUPER ET GPL              
BR K5166197TF724110SUP09230K516619720251128170764 LACQ                       GP-342-NZ    TFBCN 9454B05855900000000000000000              701001          0322TFBCN          720036380000000000000+00000019090097+000000052-0201EURD 20000000000001126+0000000006754+0000000001126+0000000006754+250EUR                                                                                AETNQKAG8Super 98 Sans PL                                                           VEHICULES TOUS SUPER ET GPL              
BR K5166197TF724110SUP09620K516619720251112152364 BIZANOS                    GX-918-RM    TFBMB 7277B01374600000000000000000              710099          03ACTFBMB          720024990000000000000+00000019090097+000000052-0201EURD 20000000000000773+0000000004639+0000000000773+0000000004639+250EUR                                                                                AETFKYCO4Super 98 Sans PL                                                           VEHICULES TOUS SUPER ET GPL              
BR K5166197TF724110GOZ06493K516619720251125110464 OLORON STE MARIE           DG-370-KX    TFVSM 5474A17018800000000000000000              701001          0322TFVSM          720031130000000000000+00000018090097+000000052-0102EURD 20000000000000911+0000000005467+0000000000911+0000000005467+250EUR                                                                                AETLSYCH5Gazole Premier                                                             VEHICULES GAZOLE                         
BR K5166197TF724110SUP09890K516619720251105190540 HAGETMAU                   GN-620-LB    TFGYK 7740B05615300000000000000000              710099          0351TFGYK          720044170000000000000+00000017950097+000000052-0223EURD 20000000000001282+0000000007694+0000000001282+0000000007694+250EUR                                                                                AETCLRCU3Sans Plomb 95 E10                                                          VEHICULES TOUS SUPER ET GPL              
BR K5166197TF724110GOZ05524K516619720251105073464 PARDIES                    CD-029-MP    TFLZB 5034A21614400000000000000000              701001          0352TFLZB          720070480000000000000+00000018290097+000000052-0112EURD 20000000000002086+0000000012516+0000000002086+0000000012516+250EUR                                                                                AETCNPYK8Gazole Excellium                                                           VEHICULES GAZOLE                         
BR K5166197TF724110GOZ02765K516619720251112091064 BIARRITZ                   6490 YX 64   TFMEC 1727A19319500000000000000000              701001          0351TFMEC          720027240000000000000+00000017940097+000000052-0116EURD 20000000000000790+0000000004742+0000000000790+0000000004742+250EUR                                                                                AETFMHZE0Diesel B10                                                                 VEHICULES GAZOLE                         
BR K5166197TF724110SUP08820K516619720251117181664 BIZANOS                    GM-673-YD    TFBMB 4130A04895300000000000000000              701001          03ACTFBMB          720032070000000000000+00000019390097+000000052-0201EURD 20000000000001008+0000000006050+0000000001008+0000000006050+250EUR                                                                                AETHNGBV7Super 98 Sans PL                                                           VEHICULES TOUS SUPER ET GPL              
BR K5166197TF724110GOZ07302K516619720251126180964 PAU                        ED-690-WQ    TFWFD 8365B18103600000000000000000              701001          03ACTFWFD          720021740000000000000+00000017990097+000000052-0102EURD 20000000000000633+0000000003796+0000000000633+0000000003796+250EUR                                                                                AETMEDPN7Gazole Premier                                                             VEHICULES GAZOLE                         
BR K5166197TF724110GOZ09860K516619720251126105764 BIZANOS                    GC-359-YW    TFBMB 8463A05333800000000000000000              701001          02ACTFBMB          720046380000000000000+00000018490097+000000052-0112EURD 20000000000001389+0000000008332+0000000001389+0000000008332+250EUR                                                                                AETMKSCY2Gazole Excellium                                                           VEHICULES GAZOLE                         
BR K5166197TF724110SUP08551K516619720251118094540 HAGETMAU                   EH-213-VD    TFGYK 8319B05832800000000000000000              701001          0351TFGYK          720023440000000000000+00000018300097+000000052-0223EURD 20000000000000694+0000000004165+0000000000694+0000000004165+250EUR                                                                                AETIHTQM8Sans Plomb 95 E10                                                          VEHICULES TOUS SUPER ET GPL              
BR K5166197TF724110SUP09640K516619720251106125664 BAYONNE                    GX-898-RM    TFDOP 2150 00912400000000000000000              710099          03OTTFDOP          720018610000000000000+00000017950097+000000052-0223EURD 20000000000000540+0000000003241+0000000000540+0000000003241+250EUR                                                                                AETDAKWE2Sans Plomb 95 E10                                                          VEHICULES TOUS SUPER ET GPL              
BR K5166197TF724110GOZ08182K516619720251119190964 USTARITZ                   FS-057-RD    TFBRE 7527B20237700000000000000000              711308          0351TFBRE          720045660000000000000+00000018790097+000000052-0112EURD 20000000000001390+0000000008339+0000000001390+0000000008339+250EUR                                                                                AETIKDTV1Gazole Excellium                                                           VEHICULES GAZOLE                         
BR K5166197TF724110SUP06583K516619720251126182264 PAU                        DH-850-SK    TFMCB 4446B14706100000000000000000              701001          0451TFMCB          720033050000000000000+00000019190097+000000052-0201EURD 20000000000001028+0000000006169+0000000001028+0000000006169+250EUR                                                                                AETMKKEC3Super 98 Sans PL                                                           VEHICULES TOUS SUPER ET GPL              
BR K5166197TF724110GOZ07693K516619720251113182464 LARRESSORE                 EZ-853-PN    TFBDG 1245B12157400000000000000000              711308          03OTTFBDG          720056150000000000000+00000018440097+000000052-0112EURD 20000000000001676+0000000010055+0000000001676+0000000010055+250EUR                                                                                AETFPPKW8Gazole Excellium                                                           VEHICULES GAZOLE                         
BR K5166197TF724110SUP09710K516619720251124162364 LARRESSORE                 GX-848-RM    TFBDG 1620B02808200000000000000000              710099          03OTTFBDG          720027940000000000000+00000019290097+000000052-0201EURD 20000000000000874+0000000005243+0000000000874+0000000005243+250EUR                                                                                AETLAQIK3Super 98 Sans PL                                                           VEHICULES TOUS SUPER ET GPL              
BR K5166197TF724110SUP09200K516619720251113173464 JURANCON                   GP-485-NZ    TFDOE 0479B03572900000000000000000              701001          03ACTFDOE          720037050000000000000+00000018000097+000000052-0223EURD 20000000000001079+0000000006473+0000000001079+0000000006473+250EUR                                                                                AETFWDVW1Sans Plomb 95 E10                                                          VEHICULES TOUS SUPER ET GPL              
BR K5166197TF724110SUP09380K516619720251121144964 OLORON STE MARIE           GQ-842-SZ    TFVSM 3863A03587200000000000000000              701001          0322TFVSM          720022400000000000000+00000018400097+000000052-0223EURD 20000000000000667+0000000004002+0000000000667+0000000004002+250EUR                                                                                AETKAPQS1Sans Plomb 95 E10                                                          VEHICULES TOUS SUPER ET GPL              
BR K5166197TF724110SUP07912K516619720251118080764 PARDIES                    FJ-460-DW    TFLZB 7273A14268300000000000000000              701001          0352TFLZB          720032760000000000000+00000018300097+000000052-0223EURD 20000000000000970+0000000005821+0000000000970+0000000005821+250EUR                                                                                AETIBGXS3Sans Plomb 95 E10                                                          VEHICULES TOUS SUPER ET GPL              
BR K5166197TF724110GOZ06914K516619720251118174964 BAYONNE                    DR-943-HL    TFDOP 7661B25750200000000000000000              701001          03OTTFDOP          720014830000000000000+00000018640097+000000052-0112EURD 20000000000000448+0000000002687+0000000000448+0000000002687+250EUR                                                                                AETIEDTD0Gazole Excellium                                                           VEHICULES GAZOLE                         
BR K5166197TF724110GOZ09130K516619720251118130664 PAU                        GP-888-FZ    TFWFD 3279B02784200000000000000000              701001          03ACTFWFD          720025990000000000000+00000018640097+000000052-0112EURD 20000000000000785+0000000004708+0000000000785+0000000004708+250EUR                                                                                AETICGKS0Gazole Excellium                                                           VEHICULES GAZOLE                         
BR K5166197TF724110SUP09710K516619720251118182064 BILLERE                    GX-848-RM    TFMEE 7094A02735300000000000000000              710099          0352TFMEE          720020870000000000000+00000019390097+000000052-0201EURD 20000000000000656+0000000003937+0000000000656+0000000003937+250EUR                                                                                AETIENKE3Super 98 Sans PL                                                           VEHICULES TOUS SUPER ET GPL              
BR K5166197TF724110GOZ07693K516619720251127072764 BAYONNE                    EZ-853-PN    TFDOP 3236B12233200000000000000000              711308          03OTTFDOP          720048310000000000000+00000017790097+000000052-0102EURD 20000000000001390+0000000008338+0000000001390+0000000008338+250EUR                                                                                AETMONXF8Gazole Premier                                                             VEHICULES GAZOLE                         
BR K5166197TF724110GOZ07372K516619720251118135464 JURANCON                   EH-228-VD    TFDOE 2662B04354800000000000000000              701001          03ACTFDOE          720026080000000000000+00000019390097+000000052-0201EURD 20000000000000820+0000000004920+0000000000820+0000000004920+250EUR                                                                                AETIGXYS0Super 98 Sans PL                                                           VEHICULES GAZOLE                         
BR K5166197TF724110GOZ02426K516619720251105133864 PAU                        6804YN64     TFMCB 3573B12679700000000000000000              701001          0251TFMCB          720027510000000000000+00000018290097+000000052-0112EURD 20000000000000814+0000000004885+0000000000814+0000000004885+250EUR                                                                                AETCPDDQ9Gazole Excellium                                                           VEHICULES GAZOLE                         
BR K5166197TF724110GOZ07012K516619720251105174664 PAU                        DS-982-BX    TFMCB 6451 20058000000000000000000              701001          0351TFMCB          720039950000000000000+00000017790097+000000052-0116EURD 20000000000001149+0000000006896+0000000001149+0000000006896+250EUR                                                                                AETCPDDR2Diesel B10                                                                 VEHICULES GAZOLE                         
BR K5166197TF724110CAB08203K516619720251110174464 BIZANOS                    FS-305-VW    TFBMB 5181B17965000000000000000000              711308          03ACTFBMB          720049240000000000000+00000018440097+000000052-0112EURD 20000000000001470+0000000008818+0000000001470+0000000008818+250EUR                                                                                AETENQNO5Gazole Excellium                                                           CABINET                                  
BR K5166197TF724110SUP09230K516619720251114133464 PARDIES                    GP-342-NZ    TFLZB 6782A05696000000000000000000              701001          0352TFLZB          720035970000000000000+00000018000097+000000052-0223EURD 20000000000001047+0000000006284+0000000001047+0000000006284+250EUR                                                                                AETGPVCE8Sans Plomb 95 E10                                                          VEHICULES TOUS SUPER ET GPL              
BR K5166197TF724110GOZ06743K516619720251124085764 ST JEAN LE VIEUX           DN-271-JM    TFMNB 1139A19935600000000000000000              701001          0322TFMNB          720037690000000000000+00000018090097+000000052-0102EURD 20000000000001103+0000000006618+0000000001103+0000000006618+250EUR                                                                                AETKYDMU3Gazole Premier                                                             VEHICULES GAZOLE                         
BR K5166197TF724110SUP08830K516619720251107083564 BAYONNE                    GN-198-AV    TFDOP 3720B04292200000000000000000              701001          03OTTFDOP          720042700000000000000+00000018000097+000000052-0223EURD 20000000000001243+0000000007459+0000000001243+0000000007459+250EUR                                                                                AETDUIAH6Sans Plomb 95 E10                                                          VEHICULES TOUS SUPER ET GPL              
BR K5166197TF724110SUP09280K516619720251114093064 BILLERE                    GP-527-NZ    TFMEE 5645A01864400000000000000000              701001          0352TFMEE          720036340000000000000+00000018000097+000000052-0223EURD 20000000000001058+0000000006348+0000000001058+0000000006348+250EUR                                                                                AETGTIFQ3Sans Plomb 95 E10                                                          VEHICULES TOUS SUPER ET GPL              
BR K5166197TF724110GOZ08581K516619720251117150964 JURANCON                   GL-959-EH    TFDOE 8293 08786000000000000000000              711308          03ACTFDOE          720035260000000000000+00000018040097+000000052-0102EURD 20000000000001029+0000000006175+0000000001029+0000000006175+250EUR                                                                                AETHGYDG4Gazole Premier                                                             VEHICULES GAZOLE                         
BR K5166197TF724110SUP09920K516619720251120154464 ST PIERRE D'IRUBE          GB-494-GL    TFMKT 9204B09556500000000000000000              710099          0351TFMKT          720024860000000000000+00000018400097+000000052-0223EURD 20000000000000740+0000000004442+0000000000740+0000000004442+250EUR                                                                                AETJKTJQ8Sans Plomb 95 E10                                                          VEHICULES TOUS SUPER ET GPL              
BR K5166197TF724110SUP09660K516619720251128083664 GER                        GX-877-RM    TFJKN 3385B00697500000000000000000              710099          0452TFJKN          720025280000000000000+00000019090097+000000052-0201EURD 20000000000000782+0000000004693+0000000000782+0000000004693+250EUR                                                                                AETNMYXT0Super 98 Sans PL                                                           VEHICULES TOUS SUPER ET GPL              
BR K5166197TF724110GOZ09480K516619720251119185064 JURANCON                   EN-004-DA    TFDOE 9077 08867900000000000000000              711308          03ACTFDOE          720026800000000000000+00000018290097+000000052-0102EURD 20000000000000793+0000000004760+0000000000793+0000000004760+250EUR                                                                                AETIMAIN8Gazole Premier                                                             VEHICULES GAZOLE                         
BR K5166197TF724110GOZ06793K516619720251105085164 ANGLET                     DN-046-RM    TFMEL 8302B20896600000000000000000              701001          0351TFMEL          720051180000000000000+00000017790097+000000052-0102EURD 20000000000001472+0000000008834+0000000001472+0000000008834+250EUR                                                                                AETCKWVZ8Gazole Premier                                                             VEHICULES GAZOLE                         
BR K5166197TF724110GOZ06992K516619720251107142464 PAU                        DS-065-BY    TFMCB 7144 20978700000000000000000              701001          0351TFMCB          720042790000000000000+00000017940097+000000052-0116EURD 20000000000001242+0000000007451+0000000001242+0000000007451+250EUR                                                                                AETDZJXR6Diesel B10                                                                 VEHICULES GAZOLE                         
BR K5166197TF724110GOZ06914K516619720251127072364 ST PIERRE D'IRUBE          DR-943-HL    TFMKT 0812B25003400000000000000000              701001          0351TFMKT          720028650000000000000+00000017790097+000000052-0102EURD 20000000000000824+0000000004945+0000000000824+0000000004945+250EUR                                                                                AETMZUPQ0Gazole Premier                                                             VEHICULES GAZOLE                         
BR K5166197TF724110GOZ06643K516619720251127130964 BAYONNE                    DL-642-XS    TFDOP 0756B15453000000000000000000              701001          03OTTFDOP          720032080000000000000+00000018290097+000000052-0112EURD 20000000000000950+0000000005699+0000000000950+0000000005699+250EUR                                                                                AETMWFTL5Gazole Excellium                                                           VEHICULES GAZOLE                         
BR K5166197TF724110SUP09190K516619720251119121964 PAU                        GP-306-NZ    TFMCB 1169B04850300000000000000000              701001          0351TFMCB          720022820000000000000+00000018400097+000000052-0223EURD 20000000000000680+0000000004079+0000000000680+0000000004079+250EUR                                                                                AETIRZZO4Sans Plomb 95 E10                                                          VEHICULES TOUS SUPER ET GPL              
BR K5166197TF724110SUP09790K516619720251114172264 ANGLET                     GX-003-RN    TFSUX 0279B03053300000000000000000              710099          03ACTFSUX          720040200000000000000+00000019090097+000000052-0201EURD 20000000000001244+0000000007463+0000000001244+0000000007463+250EUR                                                                                AETGPGVE5Super 98 Sans PL                                                           VEHICULES TOUS SUPER ET GPL              
BR K5166197TF724110CAB08212K516619720251105133264 JURANCON                   FT-489-AD    TFDOE 9262B18790000000000000000000              711308          03ACTFDOE          720040400000000000000+00000017790097+000000052-0102EURD 20000000000001162+0000000006973+0000000001162+0000000006973+250EUR                                                                                AETCEGIX6Gazole Premier                                                             CABINET                                  
BR K5166197TF724110SUP09710K516619720251103162664 JURANCON                   GX-848-RM    TFWLI 4419A02582700000000000000000              710099          0352TFWLI          720024690000000000000+00000017950097+000000052-0223EURD 20000000000000717+0000000004301+0000000000717+0000000004301+250EUR                                                                                AETBGOZW3Sans Plomb 95 E10                                                          VEHICULES TOUS SUPER ET GPL              
BR K5166197TF724110GOZ08521K516619720251128112764 ST JEAN DE LUZ             DL-608-XS    TFDOI 6549A20727900000000000000000              701001          0321TFDOI          720041590000000000000+00000017790097+000000052-0102EURD 20000000000001196+0000000007178+0000000001196+0000000007178+250EUR                                                                                AETNKKBC1Gazole Premier                                                             VEHICULES GAZOLE                         
BR K5166197TF724110SUP06283K516619720251103152664 PAU                        DC-976-DG    TFWFD 8537B17356500000000000000000              701001          03ACTFWFD          720029820000000000000+00000019040097+000000052-0201EURD 20000000000000920+0000000005521+0000000000920+0000000005521+250EUR                                                                                AETBMBJU0Super 98 Sans PL                                                           VEHICULES TOUS SUPER ET GPL              
BR K5166197TF724110SUP08501K516619720251121132064 PAU                        GB-762-VB    TFMCB 0947 03736200000000000000000              701001          0351TFMCB          720029930000000000000+00000018400097+000000052-0223EURD 20000000000000891+0000000005348+0000000000891+0000000005348+250EUR                                                                                AETJZGGU3Sans Plomb 95 E10                                                          VEHICULES TOUS SUPER ET GPL              
BR K5166197TF724110SUP08890K516619720251118160664 BIZANOS                    GN-135-EN    TFBMB 8447B04400000000000000000000              701001          03ACTFBMB          720049040000000000000+00000018300097+000000052-0223EURD 20000000000001452+0000000008714+0000000001452+0000000008714+250EUR                                                                                AETIDDYA0Sans Plomb 95 E10                                                          VEHICULES TOUS SUPER ET GPL              
BR K5166197TF724110SUP07931K516619720251104105564 BIDACHE                    FJ-530-PP    TFHQZ 6511A13953000000000000000000              701001          0300TFHQZ          720026320000000000000+00000018540097+000000052-0203EURD 20000000000000790+0000000004741+0000000000790+0000000004741+250EUR                                                                                AETBVTTJ3Super 95 Sans PL                                                           VEHICULES TOUS SUPER ET GPL              
BR K5166197TF724110GOZ02426K516619720251127163364 PAU                        6804YN64     TFMCB 4504B12720100000000000000000              701001          0251TFMCB          720024510000000000000+00000018290097+000000052-0112EURD 20000000000000726+0000000004354+0000000000726+0000000004354+250EUR                                                                                AETMUYHY9Gazole Excellium                                                           VEHICULES GAZOLE                         
BR K5166197TF724110GOZ08581K516619720251112124564 JURANCON                   GL-959-EH    TFDOE 1080B08729000000000000000000              711308          03ACTFDOE          720041990000000000000+00000018440097+000000052-0112EURD 20000000000001253+0000000007519+0000000001253+0000000007519+250EUR                                                                                AETEYYLQ4Gazole Excellium                                                           VEHICULES GAZOLE                         
BR K5166197TF724110GOZ08341K516619720251105130764 ORTHEZ                     GB-495-CX    TFMCS 9379B06946700000000000000000              711308          0351TFMCS          720040000000000000000+00000018290097+000000052-0112EURD 20000000000001184+0000000007103+0000000001184+0000000007103+250EUR                                                                                AETCHBTF3Gazole Excellium                                                           VEHICULES GAZOLE                         
BR K5166197TF724110GOZ07082K516619720251120132364 MONTARDON                  DT-832-ML    TFMUF 5906A14267500000000000000000              701001          0322TFMUF          720030960000000000000+00000018290097+000000052-0102EURD 20000000000000917+0000000005500+0000000000917+0000000005500+250EUR                                                                                AETJMFDD5Gazole Premier                                                             VEHICULES GAZOLE                         
BR K5166197TF724110SUP09910K516619720251117185464 BILLERE                    CL-158-ZX    TFMEE 6683A08717900000000000000000              710099          0352TFMEE          720010000000000000000+00000019390097+000000052-0201EURD 20000000000000314+0000000001886+0000000000314+0000000001886+250EUR                                                                                AETHRMCM9Super 98 Sans PL                                                           VEHICULES TOUS SUPER ET GPL              
BR K5166197TF724110GOZ07492K516619720251112175364 ST PALAIS                  EN-209-DA    TFBJC 6573A12401000000000000000000              701001          0352TFBJC          720023230000000000000+00000017940097+000000052-0102EURD 20000000000000674+0000000004045+0000000000674+0000000004045+250EUR                                                                                AETFLVXY6Gazole Premier                                                             VEHICULES GAZOLE                         
BR K5166197TF724110SUP09710K516619720251107173064 PAU                        GX-848-RM    TFWFD 8948B02672200000000000000000              710099          03ACTFWFD          720014550000000000000+00000019090097+000000052-0201EURD 20000000000000450+0000000002701+0000000000450+0000000002701+250EUR                                                                                AETDSHBW3Super 98 Sans PL                                                           VEHICULES TOUS SUPER ET GPL              
BR K5166197TF724110SUP08391K516619720251127182064 ST PIERRE D'IRUBE          GB-781-JP    TFMKT 6587B10555700000000000000000              701001          0351TFMKT          720028600000000000000+00000018000097+000000052-0223EURD 20000000000000833+0000000004996+0000000000833+0000000004996+250EUR                                                                                AETMZUPR9Sans Plomb 95 E10                                                          VEHICULES TOUS SUPER ET GPL              
BR K5166197TF724110SUP09760K516619720251126104764 PAU                        GX-018-RN    TFMCB 2182 02278000000000000000000              710099          0351TFMCB          720033180000000000000+00000018100097+000000052-0223EURD 20000000000000972+0000000005830+0000000000972+0000000005830+250EUR                                                                                AETMKKEE8Sans Plomb 95 E10                                                          VEHICULES TOUS SUPER ET GPL              
BR K5166197TF724110GOZ08531K516619720251121132933 ST ANDRE DE CUBZAC         GF-980-GD    TFLVF 5820B08860600000000000000000              711308          0352TFLVF          720033010000000000000+00000018290097+000000052-0102EURD 20000000000000977+0000000005863+0000000000977+0000000005863+250EUR                                                                                AETJWWIQ9Gazole Premier                                                             VEHICULES GAZOLE                         
BR K5166197TF724110CD301388K516619720251120091264 PAU                        3747WQ64     TFWFD 9362B14055600000000000000000              701001          04ACTFWFD          720060010000000000000+00000019490097+000000052-0201EURD 20000000000001897+0000000011380+0000000001897+0000000011380+250EUR                                                                                AETJLBSM2Super 98 Sans PL                                                           CD3                                      
BR K5166197TF724110SUP08461K516619720251124121064 ANGLET                     GC-497-PM    TFSUX 5869B07354900000000000000000              701001          03ACTFSUX          720038340000000000000+00000018200097+000000052-0223EURD 20000000000001129+0000000006774+0000000001129+0000000006774+250EUR                                                                                AETKZUVQ0Sans Plomb 95 E10                                                          VEHICULES TOUS SUPER ET GPL              
BR K5166197TF724110GOZ06384K516619720251127153964 BILLERE                    DC-129-DH    TFMEE 9971A25922600000000000000000              701001          0352TFMEE          720048500000000000000+00000017790097+000000052-0116EURD 20000000000001395+0000000008372+0000000001395+0000000008372+250EUR                                                                                AETMWPJE6Diesel B10                                                                 VEHICULES GAZOLE                         
BR K5166197TF724110SUP09510K516619720251124141164 PARDIES                    GX-923-WP    TFLZB 8743A01062700000000000000000              710099          0352TFLZB          720036080000000000000+00000019290097+000000052-0201EURD 20000000000001128+0000000006769+0000000001128+0000000006769+250EUR                                                                                AETLAHVZ7Super 98 Sans PL                                                           VEHICULES TOUS SUPER ET GPL              
BR K5166197TF724110GOZ07232K516619720251113182264 PAU                        DX-277-HH    TFMCB 8744 19215800000000000000000              701001          0351TFMCB          720045970000000000000+00000018440097+000000052-0112EURD 20000000000001372+0000000008232+0000000001372+0000000008232+250EUR                                                                                AETFXQRS6Gazole Excellium                                                           VEHICULES GAZOLE                         
BR K5166197TF724110SUP09240K516619720251119175564 PAU                        GP-479-NZ    TFMCB 4166B04282500000000000000000              701001          0351TFMCB          720040000000000000000+00000019490097+000000052-0201EURD 20000000000001264+0000000007585+0000000001264+0000000007585+250EUR                                                                                AETIRZZP7Super 98 Sans PL                                                           VEHICULES TOUS SUPER ET GPL              
BR K5166197TF724110SUP07921K516619720251124132164 OLORON STE MARIE           FJ-256-EJ    TFVSM 5111A14225100000000000000000              701001          0322TFVSM          720030260000000000000+00000019290097+000000052-0201EURD 20000000000000946+0000000005678+0000000000946+0000000005678+250EUR                                                                                AETKXMDA4Super 98 Sans PL                                                           VEHICULES TOUS SUPER ET GPL              
BR K5166197TF724110SUP08980K516619720251107125364 ST JEAN LE VIEUX           GN-964-DG    TFMNB 0249A06464500000000000000000              701001          0322TFMNB          720034650000000000000+00000019090097+000000052-0201EURD 20000000000001072+0000000006433+0000000001072+0000000006433+250EUR                                                                                AETDRYEB9Super 98 Sans PL                                                           VEHICULES TOUS SUPER ET GPL              
BR K5166197TF724110GOZ06733K516619720251105124964 ST JEAN DE LUZ             DN-263-JM    TFDOI 0148B19105000000000000000000              701001          0321TFDOI          720031750000000000000+00000017790097+000000052-0102EURD 20000000000000913+0000000005480+0000000000913+0000000005480+250EUR                                                                                AETCQMOF4Gazole Premier                                                             VEHICULES GAZOLE                         
BR K5166197TF724110CAB08481K516619720251126175664 BIDACHE                    GD-321-XL    TFHQZ 7302A18065500000000000000000              711308          0300TFHQZ          720044420000000000000+00000018690097+000000052-0203EURD 20000000000001345+0000000008070+0000000001345+0000000008070+250EUR                                                                                AETMBIUD7Super 95 Sans PL                                                           CABINET                                  
BR K5166197TF724110SUP08850K516619720251128131064 BAYONNE                    GN-928-FM    TFDOP 1220B05394300000000000000000              701001          03OTTFDOP          720050030000000000000+00000018000097+000000052-0223EURD 20000000000001457+0000000008740+0000000001457+0000000008740+250EUR                                                                                AETNNILP4Sans Plomb 95 E10                                                          VEHICULES TOUS SUPER ET GPL              
BR K5166197TF724110GOZ06793K516619720251119160464 ANGLET                     DN-046-RM    TFMEL 9509B20952600000000000000000              701001          0351TFMEL          720047120000000000000+00000018290097+000000052-0102EURD 20000000000001395+0000000008370+0000000001395+0000000008370+250EUR                                                                                AETITGWV8Gazole Premier                                                             VEHICULES GAZOLE                         
BR K5166197TF724110SUP08810K516619720251126101964 NOUSTY                     GN-222-AV    TFIDX 6585A02325400000000000000000              701001          0300TFIDX          720042490000000000000+00000019190097+000000052-0201EURD 20000000000001322+0000000007930+0000000001322+0000000007930+250EUR                                                                                AETMGKUS8Super 98 Sans PL                                                           VEHICULES TOUS SUPER ET GPL              
BR K5166197TF724110SUP09630K516619720251119181664 BILLERE                    GX-912-RM    TFMEE 7463A02741000000000000000000              710099          0352TFMEE          720028800000000000000+00000018400097+000000052-0223EURD 20000000000000858+0000000005146+0000000000858+0000000005146+250EUR                                                                                AETITNXC3Sans Plomb 95 E10                                                          VEHICULES TOUS SUPER ET GPL              
BR K5166197TF724110SUP05884K516619720251106115464 JURANCON                   CL-824-ZX    TFDOE 4523 07174600000000000000000              701001          03ACTFDOE          720028500000000000000+00000017950097+000000052-0223EURD 20000000000000827+0000000004964+0000000000827+0000000004964+250EUR                                                                                AETDDIZL6Sans Plomb 95 E10                                                          VEHICULES TOUS SUPER ET GPL              
BR K5166197TF724110SUP09150K516619720251117132564 BAYONNE                    GP-530-NZ    TFDOP 7180B01283200000000000000000              701001          03OTTFDOP          720023930000000000000+00000018300097+000000052-0223EURD 20000000000000709+0000000004253+0000000000709+0000000004253+250EUR                                                                                AETHRCLI8Sans Plomb 95 E10                                                          VEHICULES TOUS SUPER ET GPL              
BR K5166197TF724110SUP08461K516619720251110134764 BIDART                     GC-497-PM    TFMJF 6526B07243700000000000000000              701001          0331TFMJF          720022420000000000000+00000018000097+000000052-0223EURD 20000000000000653+0000000003917+0000000000653+0000000003917+250EUR                                                                                AETETHEA0Sans Plomb 95 E10                                                          VEHICULES TOUS SUPER ET GPL              
BR K5166197TF724110SUP08840K516619720251118175364 SALIES DE BEARN            GN-064-EN    TFMHA 1404A03889200000000000000000              701001          0351TFMHA          720041270000000000000+00000018300097+000000052-0223EURD 20000000000001222+0000000007333+0000000001222+0000000007333+250EUR                                                                                AETIBWAV5Sans Plomb 95 E10                                                          VEHICULES TOUS SUPER ET GPL              
BR K5166197TF724110SUP07921K516619720251107172564 JURANCON                   FJ-256-EJ    TFWLI 5373 14160000000000000000000              701001          0352TFWLI          720033060000000000000+00000018000097+000000052-0223EURD 20000000000000963+0000000005776+0000000000963+0000000005776+250EUR                                                                                AETDVNWZ4Sans Plomb 95 E10                                                          VEHICULES TOUS SUPER ET GPL              
BR K5166197TF724110GOZ03644K516619720251114141464 IGON                       BA-696-HL    TFECX 7398A16809000000000000000000              701001          0351TFECX          720021120000000000000+00000017940097+000000052-0102EURD 20000000000000613+0000000003677+0000000000613+0000000003677+250EUR                                                                                AETGTKQQ6Gazole Premier                                                             VEHICULES GAZOLE                         
BR K5166197TF724110GOZ09130K516619720251127112264 PAU                        GP-888-FZ    TFMCB 2547 02826400000000000000000              701001          0351TFMCB          720021960000000000000+00000017790097+000000052-0116EURD 20000000000000632+0000000003790+0000000000632+0000000003790+250EUR                                                                                AETMUYIB0Diesel B10                                                                 VEHICULES GAZOLE                         
BR K5166197TF724110SUP06363K516619720251106140664 BILLERE                    DC-106-DH    TFMEE 4473B10660800000000000000000              701001          0352TFMEE          720018510000000000000+00000019040097+000000052-0201EURD 20000000000000571+0000000003427+0000000000571+0000000003427+250EUR                                                                                AETDAUNM0Super 98 Sans PL                                                           VEHICULES TOUS SUPER ET GPL              
BR K5166197TF724110GOZ09400K516619720251106110864 URRUGNE                    DX-192-ST    TFMEM 9618B28264000000000000000000              701001          0251TFMEM          720069070000000000000+00000017840097+000000052-0102EURD 20000000000001993+0000000011958+0000000001993+0000000011958+250EUR                                                                                AETDGXQM7Gazole Premier                                                             VEHICULES GAZOLE                         
BR K5166197TF724110SUP08401K516619720251119201864 ST PIERRE D'IRUBE          GB-774-JP    TFMKT 6313B60006100000000000000000              701001          0351TFMKT          720030480000000000000+00000019490097+000000052-0201EURD 20000000000000963+0000000005780+0000000000963+0000000005780+250EUR                                                                                AETITXEA6Super 98 Sans PL                                                           VEHICULES TOUS SUPER ET GPL              
BR K5166197TF724110SUP09920K516619720251112183564 BAYONNE                    GB-494-GL    TFDOP 4751 09429200000000000000000              710099          03OTTFDOP          720034800000000000000+00000018000097+000000052-0223EURD 20000000000001013+0000000006079+0000000001013+0000000006079+250EUR                                                                                AETFJAAT8Sans Plomb 95 E10                                                          VEHICULES TOUS SUPER ET GPL              
BR K5166197TF724110GOZ07282K516619720251107085564 JURANCON                   ED-680-WQ    TFWLI 5228 17607000000000000000000              701001          0352TFWLI          720020910000000000000+00000017940097+000000052-0102EURD 20000000000000607+0000000003641+0000000000607+0000000003641+250EUR                                                                                AETDVNWY1Gazole Premier                                                             VEHICULES GAZOLE                         
BR K5166197TF724110SUP09780K516619720251127065564 OLORON STE MARIE           GX-009-RN    TFVSM 6304A02892400000000000000000              710099          0322TFVSM          720023620000000000000+00000018000097+000000052-0223EURD 20000000000000688+0000000004127+0000000000688+0000000004127+250EUR                                                                                AETMZBLL6Sans Plomb 95 E10                                                          VEHICULES TOUS SUPER ET GPL              
BR K5166197TF724110SUP09800K516619720251124162564 ST JEAN DE LUZ             GX-588-XZ    TFMSV 3787B02393100000000000000000              710099          0352TFMSV          720026600000000000000+00000018200097+000000052-0223EURD 20000000000000783+0000000004700+0000000000783+0000000004700+250EUR                                                                                AETKYGIO2Sans Plomb 95 E10                                                          VEHICULES TOUS SUPER ET GPL              
BR K5166197TF724110SUP08401K516619720251125201764 ST PIERRE D'IRUBE          GB-774-JP    TFMKT 7009B06046700000000000000000              701001          0351TFMKT          720024390000000000000+00000019290097+000000052-0201EURD 20000000000000763+0000000004577+0000000000763+0000000004577+250EUR                                                                                AETLQVPC6Super 98 Sans PL                                                           VEHICULES TOUS SUPER ET GPL              
BR K5166197TF724110SUP09550K516619720251104130364 BIZANOS                    GX-904-VP    TFBMB 5699B00739400000000000000000              710099          03ACTFBMB          720028500000000000000+00000019040097+000000052-0201EURD 20000000000000879+0000000005276+0000000000879+0000000005276+250EUR                                                                                AETBZXDL3Super 98 Sans PL                                                           VEHICULES TOUS SUPER ET GPL              
BR K5166197TF724110GOZ08341K516619720251124110164 LACQ                       GB-495-CX    TFBCN 9465B07039500000000000000000              711308          0322TFBCN          720043000000000000000+00000018590097+000000052-0112EURD 20000000000001295+0000000007768+0000000001295+0000000007768+250EUR                                                                                AETKVADZ3Gazole Excellium                                                           VEHICULES GAZOLE                         
BR K5166197TF724110SUP08880K516619720251118082364 JURANCON                   GN-074-EN    TFDOE 8461 03917900000000000000000              701001          03ACTFDOE          720042890000000000000+00000018300097+000000052-0223EURD 20000000000001270+0000000007621+0000000001270+0000000007621+250EUR                                                                                AETIGXYT1Sans Plomb 95 E10                                                          VEHICULES TOUS SUPER ET GPL              
BR K5166197TF724110GOZ08351K516619720251118155964 ANGLET                     GB-256-MC    TFMEL 9949B05126700000000000000000              701001          0351TFMEL          720035500000000000000+00000018140097+000000052-0102EURD 20000000000001042+0000000006252+0000000001042+0000000006252+250EUR                                                                                AETIGYET3Gazole Premier                                                             VEHICULES GAZOLE                         
BR K5166197TF724110SUP09490K516619720251105075533 LORMONT                    GT-761-KC    TFDNQ 6303B05050000000000000000000              711308          0337TFDNQ          720019210000000000000+00000017950097+000000052-0223EURD 20000000000000558+0000000003346+0000000000558+0000000003346+250EUR                                                                                AETCFZAU7Sans Plomb 95 E10                                                          VEHICULES TOUS SUPER ET GPL              
BR K5166197TF724110GOZ07712K516619720251125134964 BAYONNE                    FA-711-TV    TFDOP 0028 11978900000000000000000              711308          03OTTFDOP          720031860000000000000+00000018090097+000000052-0102EURD 20000000000000933+0000000005596+0000000000933+0000000005596+250EUR                                                                                AETLGPAI6Gazole Premier                                                             VEHICULES GAZOLE                         
BR K5166197TF724110SUP06213K516619720251114120064 ORTHEZ                     DA-730-ET    TFMCS 3495 09509300000000000000000              701001          0351TFMCS          720024200000000000000+00000018000097+000000052-0223EURD 20000000000000705+0000000004229+0000000000705+0000000004229+250EUR                                                                                AETGNNUF7Sans Plomb 95 E10                                                          VEHICULES TOUS SUPER ET GPL              
BR K5166197TF724110GOZ07282K516619720251124141564 BIZANOS                    ED-680-WQ    TFBMB 7533A17644100000000000000000              701001          03ACTFBMB          720021950000000000000+00000018090097+000000052-0102EURD 20000000000000642+0000000003854+0000000000642+0000000003854+250EUR                                                                                AETLCDCC1Gazole Premier                                                             VEHICULES GAZOLE                         
BR K5166197TF724110SUP08391K516619720251125114364 BILLERE                    GB-781-JP    TFMEE 6998B10507300000000000000000              701001          0352TFMEE          720028980000000000000+00000018200097+000000052-0223EURD 20000000000000853+0000000005120+0000000000853+0000000005120+250EUR                                                                                AETLTHFJ9Sans Plomb 95 E10                                                          VEHICULES TOUS SUPER ET GPL              
BR K5166197TF724110GOZ08441K516619720251108190964 BIZANOS                    GA-991-XQ    TFBMB 9184 16585100000000000000000              711308          03ACTFBMB          720038720000000000000+00000018440097+000000052-0112EURD 20000000000001156+0000000006935+0000000001156+0000000006935+250EUR                                                                                AETEDNZF1Gazole Excellium                                                           VEHICULES GAZOLE                         
BR K5166197TF724110SUP08361K516619720251128121664 PAU                        GB-223-MC    TFMCB 2976 04432500000000000000000              701001          0351TFMCB          720033780000000000000+00000019090097+000000052-0201EURD 20000000000001045+0000000006270+0000000001045+0000000006270+250EUR                                                                                AETNLXQC2Super 98 Sans PL                                                           VEHICULES TOUS SUPER ET GPL              
BR K5166197TF724110SUP09780K516619720251105183664 BIZANOS                    GX-009-RN    TFBMB 6007B02678400000000000000000              710099          03ACTFBMB          720029740000000000000+00000019040097+000000052-0201EURD 20000000000000918+0000000005506+0000000000918+0000000005506+250EUR                                                                                AETCSCDQ6Super 98 Sans PL                                                           VEHICULES TOUS SUPER ET GPL              
BR K5166197TF724110GOZ08231K516619720251103154764 ST PALAIS                  FW-992-EJ    TFBJC 5507A09674200000000000000000              701001          0352TFBJC          720033370000000000000+00000018140097+000000052-0112EURD 20000000000000979+0000000005875+0000000000979+0000000005875+250EUR                                                                                AETBNYOL7Gazole Excellium                                                           VEHICULES GAZOLE                         
BR K5166197TF724110SUP09820K516619720251104160264 BIDART                     GX-549-XZ    TFMJF 6129B01054500000000000000000              710099          0331TFMJF          720030790000000000000+00000017950097+000000052-0223EURD 20000000000000894+0000000005364+0000000000894+0000000005364+250EUR                                                                                AETCCLAH0Sans Plomb 95 E10                                                          VEHICULES TOUS SUPER ET GPL              
BR K5166197TF724110CAB02096K516619720251104135864 PAU                        8981YF64     TFMCB 0049B16268600000000000000000              701001          0251TFMCB          720039010000000000000+00000017690097+000000052-0116EURD 20000000000001116+0000000006695+0000000001116+0000000006695+250EUR                                                                                AETBWWLX0Diesel B10                                                                 CABINET                                  
BR K5166197TF724110GOZ06543K516619720251127122764 PAU                        DH-114-PH    TFMCB 2580 25985100000000000000000              701001          0351TFMCB          720035020000000000000+00000017790097+000000052-0116EURD 20000000000001007+0000000006044+0000000001007+0000000006044+250EUR                                                                                AETMUYHZ7Diesel B10                                                                 VEHICULES GAZOLE                         
BR K5166197TF724110GOZ06403K516619720251120090064 PAU                        DC-775-WG    TFMCB 1272B22350900000000000000000              701001          0351TFMCB          720033050000000000000+00000018290097+000000052-0116EURD 20000000000000978+0000000005870+0000000000978+0000000005870+250EUR                                                                                AETJIRTR4Diesel B10                                                                 VEHICULES GAZOLE                         
BR K5166197TF724110SUP09780K516619720251113142364 PARDIES                    GX-009-RN    TFLZB 6503A02725700000000000000000              710099          0352TFLZB          720018080000000000000+00000019090097+000000052-0201EURD 20000000000000559+0000000003356+0000000000559+0000000003356+250EUR                                                                                AETFYZAB6Super 98 Sans PL                                                           VEHICULES TOUS SUPER ET GPL              
BR K5166197TF724110GOZ05666K516619720251104161764 ST PIERRE D'IRUBE          CJ-304-CY    TFMKT 0963A23449600000000000000000              701001          0351TFMKT          720018380000000000000+00000018190097+000000052-0112EURD 20000000000000541+0000000003245+0000000000541+0000000003245+250EUR                                                                                AETCBNLQ7Gazole Excellium                                                           VEHICULES GAZOLE                         
BR K5166197TF724110SUP08091K516619720251117182664 PAU                        FR-105-QV    TFMCB 9729 14101900000000000000000              701001          0351TFMCB          720036030000000000000+00000018300097+000000052-0223EURD 20000000000001067+0000000006402+0000000001067+0000000006402+250EUR                                                                                AETHPXFP5Sans Plomb 95 E10                                                          VEHICULES TOUS SUPER ET GPL              
BR K5166197TF724110SUP08301K516619720251128121464 IGON                       GB-513-BJ    TFECX 9284A05771500000000000000000              701001          0351TFECX          720027470000000000000+00000018590097+000000052-0203EURD 20000000000000827+0000000004962+0000000000827+0000000004962+250EUR                                                                                AETNQZZX8Super 95 Sans PL                                                           VEHICULES TOUS SUPER ET GPL              
